:100000000C9451000C9479000C9479000C947900B4
:100010000C9479000C9479000C9479000C9479007C
:100020000C9479000C9479000C9479000C9479006C
:100030000C9479000C9479000C94240B0C94D50B3F
:100040000C9479000C9479000C9479000C9479004C
:100050000C9479000C9479000C9479000C9479003C
:100060000C9479000C9479000C9479000C9479002C
:100070000C9479000C9479000C9479000C9479001C
:100080000C9479000C9479000C9479000C9479000C
:100090000C94510A0C94DB0A0C94B50A0C94790068
:1000A000950C11241FBECFEFCDBFDFE3DEBF2CE2E6
:1000B000ACEAB8E201C01D92A632B207E1F718E23D
:1000C000A0E0B8E2EEE9F3E302C005900D92AC3A8D
:1000D000B107D9F710E0C1E5D0E004C02197FE01D7
:1000E0000E943516C035D107C9F70E94C80C0C9480
:1000F00017190C940000CF93DF9390E0FC01EA55B0
:10010000FD4820812F3F71F0FC01E457FD48A0819C
:1001100030E2A39FD0011124BC5F6130710529F446
:1001200011962C93DF91CF9108958E589D48EC0144
:10013000E881EF3F89F0CD014096E80FF92FF11DDE
:100140009FB7F89412962C9380816230710539F430
:10015000886080839FBFE6CFF0E0E0E0F1CF877F4B
:10016000F8CF282F30E0F901E85AFD48E081EE236E
:1001700009F1E13021F0F0F0E63098F00895409177
:10018000010A2E583D48F90120812C5F81E090E062
:1001900001C0880F2A95EAF7809584238093010A8D
:1001A000089580E1E89FF0011124E05AF54F818124
:1001B0008F7E81830895FF920F931F93CF93DF93D8
:1001C000082F10E0F801EA55FD48F0809FEFF9167E
:1001D000A1F0EB018B3210F40E94B100F801E4575A
:1001E000FD48E08180E2E89FF0011124FC5F8081FE
:1001F0008F2159F0CD2B39F4F682DF91CF911F91E9
:100200000F91FF900895F582F8CFD801AE58BD4800
:100210008C91309771F08F3F61F07096E80FF11D6F
:100220009FB7F8948081CD2B39F4877F80839FBF5F
:10023000E4CFF0E0E0E0F4CF8860F8CFE82FF0E022
:10024000E05BFD488E30B8F480818F30B0F480934D
:10025000060681E08093080680910B0680FFFCCFA4
:100260002FB7F89490911006809111062FBF89271F
:100270009827892708953E97E7CF8FEF90E008955C
:100280008091872A9091862A891B990B0895FC01F9
:1002900054894589252F30E0842F90E0821B930BF1
:1002A000541710F0CF96089501970895FC01928994
:1002B0008389981761F0A389AE0FBF2FB11D59969E
:1002C0008C9193899F5F9F73938B90E008958FEF3C
:1002D0009FEF0895FC0192898389981731F08389F3
:1002E000E80FF11D818D90E008958FEF9FEF089545
:1002F000FC0192892389892F90E0805C9F4F821BAB
:1003000091098F7399270895CF93DF93EC01E881CA
:10031000F9810680F781E02D0995EC85FD858681C0
:100320008F738683EC85FD8585818F7585838B89A9
:100330008A8B198ADF91CF910895CF92DF92EF9245
:10034000FF920F931F93CF93DF93EC016A017B0120
:10035000022F8989882339F0E881F9810288F3899D
:10036000E02DCE01099598898091E205892B809333
:10037000E2051FB7F89460E070E281EA97E0A70118
:1003800096010E94F41569017A018FEFC81AD80A04
:10039000E80AF80AF694E794D794C794EC85FD85AB
:1003A00086818D7F8683EC85FD8586818683198A8B
:1003B000A09123110A2E000CBB0BA70196010E94ED
:1003C0003B1620E034E040E050E00E941616EC8539
:1003D000FD85C20ED31EE41EF51EC086D186EC85B7
:1003E000FD850783EC85FD858681806C8683EC85A1
:1003F000FD858581806885838E858B3220F462E05F
:1004000070E00E947B008F858B3220F461E070E009
:100410000E94DB008F858B3220F461E070E00E9447
:100420007B001FBFDF91CF911F910F91FF90EF9045
:10043000DF90CF900895CF93DF93FC019489858955
:10044000C485D585981306C08D818F7D8D83DF91FE
:10045000CF910895A589AE0FBF2FB11DA75ABF4FE9
:100460002C91858990E001968F739927858B80E484
:100470008C83A485B58512962C93948985899813CD
:10048000E6CFA485B58515968C9115978F7D159629
:100490008C9387898823D9F2808D80931301178AE2
:1004A000D6CFDC011C96ED91FC910FB607FE03C080
:1004B000258125FD04C0248125FD0C941B0208958F
:1004C000EF92FF920F931F93CF93DF93EC0181E0A4
:1004D000898B9C898D8998131CC0AC85BD85149629
:1004E0008C91149785FF15C012966C93AC85BD85D1
:1004F00080E414968C93EC85FD8585818F7D8583C2
:1005000081E090E0DF91CF911F910F91FF90EF90EC
:1005100008958091110180FF08C080911301888F98
:100520008E898093130181E08F8BF62E0C8910E069
:100530000F5F1F4F0F731127E02E8D898E1104C09E
:10054000CE010E945102F9CFEC89EC0FFD2FF11D75
:10055000E75AFF4FF0820C8BEC85FD858581806228
:10056000CECFCF93DF93FC0121892223C9F0EC0188
:100570008091110180FF08C080911301808F8689CE
:100580008093130181E0878BEC85FD85858185FD56
:1005900003C0848186FD04C0CE010E945102F4CFC5
:1005A000DF91CF91089581E00895DC01ED91FC91F8
:1005B0000088F189E02D23E030E00994AF92BF92EA
:1005C000CF92DF92EF92FF920F931F93CF93DF931F
:1005D0006C017B018B01040F151FEB015E01AE184E
:1005E000BF08C017D10759F06991D601ED91FC9170
:1005F0000190F081E02DC6010995892B79F7C5019D
:10060000DF91CF911F910F91FF90EF90DF90CF90EE
:10061000BF90AF9008950F931F93CF938B32B8F490
:10062000082F10E0F801EA55FD48C081CF3F79F06E
:100630000E94B100F801E457FD48E08180E2E89FA4
:10064000F0011124FC5F8085C82381E009F480E07B
:100650008170CF911F910F91089520916228309160
:1006600063282230310521F097EF980F923028F05F
:100670008B3218F470E00E94DB0090E080E0089577
:1006800060E085E00E942D0360E083E00E942D037E
:1006900060E084E00E942D0360E086E00E942D036C
:1006A00060E088E00E942D0360E087E00E942D0357
:1006B00060E082E00E942D0361E08AE00E942D0349
:1006C00060E089E00E942D0360E08DE00E942D0330
:1006D00090E080E008956093092A70930A2A0895B3
:1006E0006093072A7093082A0895CF93AC01109263
:1006F00042281092432810924628109247281092C0
:100700004A2810924B288AE090E080933E289093EC
:100710003F282EE130E0209352283093532883E283
:1007200090E080934E2890934F2820933228309366
:100730003328209336283093372820933A28309353
:100740003B28E0E3F8E2A8E0B8E290E0C1E01182E3
:10075000983011F4C0935128818111968C93119790
:100760002281338112962D933C9313979F5F349689
:100770001496993061F7818111968C93119782813B
:10078000938112968D939C9313974330510564F097
:100790006330710564F48EE190E080935628909365
:1007A00057281092552803C063307105A4F7CF91E4
:1007B0000895FF920F931F93CF93DF9300918E289C
:1007C00010918F281092ED2AC0E3D8E2FF24F39411
:1007D0008A819B81009709F463C001978A839B8378
:1007E000F092ED2A249688E2C835D80789F70130BF
:1007F000110509F04DC05091ED2A00912128A091DA
:10080000702A10911D2870916F2AD091192860913B
:100810006E2AC091152890916D2AB09111284091AF
:100820006C2AE8E0F8E280E022813381211531056D
:10083000E1F1215031092283338351E08F5F3496F7
:100840008A3091F7A093702A70936F2A60936E2A72
:100850005093ED2A40936C2A90936D2A80910A2838
:1008600090910B28892BA1F480910E2890910F284C
:10087000892B71F410926A2A10926B2A80910928B0
:10088000882349F181E090E080936A2A90936B2A53
:100890008091ED2ADF91CF911F910F91FF900895E4
:1008A000698188810E942D039DCF843081F030F4CE
:1008B000823059F0833011F69C2FC0CF853049F03B
:1008C000863009F0BBCFA02FB9CF4B2FB7CF6D2FFC
:1008D000B5CF712FB3CF80910D288823C9F282E064
:1008E00090E0D2CFEF92FF920F931F93CF93DF93BD
:1008F00080916228909163280297E1F096E0E92EBA
:10090000C6E4D2E710E000E0F12C89910E940B03CD
:10091000002E01C0880F0A94EAF7F82A0F5F1F4FD4
:100920000E1598F38F2DDF91CF911F910F91FF90AE
:10093000EF90089584E0E82ECCE4D2E7E3CFE09195
:10094000092AF0910A2A309741F01092CC2910928E
:10095000CB2909958091CB29089580E00895E091F5
:10096000072AF091082A309759F03091862A209171
:10097000872A321728F01092862A8093872A0994B2
:1009800008950895E091862A8091872AE81730F427
:10099000F0E0E55BF64D808190E008958FEF9FEFEA
:1009A00008959091862A8091872A2FEF3FEF98171C
:1009B00048F4E92FF0E0E55BF64D208130E09F5FE1
:1009C0009093862AC9010895CF92DF92EF92FF9209
:1009D0000F931F93CF93DF937C018A01EB016B018F
:1009E000C40ED51ECC15DD0551F06991D701ED91EE
:1009F000FC910190F081E02DC7010995F3CFC8016A
:100A0000DF91CF911F910F91FF90EF90DF90CF90EA
:100A100008952091CB2927FF08C021E030E0FC0198
:100A20002283338390E080E008958091CC29E82FE1
:100A3000F0E0E553F74D60838F5F8093CC2980937E
:100A4000CB2981E090E00895DC01ED91FC91008CD0
:100A5000F18DE02D61E009946093CA281092CC29B1
:100A60001092CB290895DC01ED91FC91048CF58D59
:100A7000E02D21E009941092862A1092872A109284
:100A8000CC291092CB298091C8289091C928892B14
:100A9000D9F482E090E08093C8289093C9281092FE
:100AA000BB281092BA281092B9281092B828109238
:100AB000B7281092B628660F6093AC0881EE809339
:100AC000A90881E08093A3088FE994E08093BE2871
:100AD0009093BF288BEC98E28093BC289093BD281C
:100AE0008FEA94E08093C3289093C4288BE499E222
:100AF0008093C1289093C22880E88093C0280895ED
:100B000090E080E008950F9391E09093C7281092B1
:100B1000B3286093B1287093B2284093B0282093F3
:100B2000AF281092B4281092B5280093AE28880FF1
:100B30008093AD2823E030E044E050E08091B0287D
:100B4000882341F02093C8283093C9288091AD288C
:100B50008E7F0BC08091AF28882351F04093C82826
:100B60005093C9288091AD2881608093A70808C060
:100B70008091B028811104C08091AF28882311F39F
:100B80008091B3288823E1F38091B3288330B1F2B8
:100B90008091AF28882321F08091B5280F91089586
:100BA0008091B328823031F0853031F0813031F4DA
:100BB00080E0F4CF81E0F2CF83E0F0CF84E0EECFAD
:100BC0000F938091C8289091C9280197A1F4809132
:100BD000C728811112C0062F20E04091CB296BEC71
:100BE00078E28091CA280E9483051092CC29109245
:100BF000CB290F91089580E0F8CF81E0F6CF0F93D5
:100C00008BE499E28093C5289093C6288091C828E8
:100C10009091C9280197C9F48091C728811117C004
:100C2000FA014138510510F0E0E8F0E0022F862F7C
:100C30002E2F40E070E060E00E9483051092862A2B
:100C40008093872A90E00F91089580E0F7CF81E0AC
:100C5000F5CFE0EAF8E091859066918722E030E0F8
:100C60002093C8283093C9288093B8281092B928B7
:100C7000089581E08093B9281092B82893E090936A
:100C8000AA089091AB0891FF10C01092BA28E09189
:100C9000BE28F091BF2809958093AC2885E090E0AC
:100CA0008093C8289093C92808951092BB288093F8
:100CB000B62886E090E0F4CF8F929F92AF92BF92D9
:100CC000CF92DF92EF92FF92CF93DF9360342DE0CB
:100CD000720723E08207910508F454C0611525E3EB
:100CE00072072CE08207910508F445C060387F4404
:100CF0008241910508F046C0C8E7D0E020E432E424
:100D00004FE050E08090022890900328A0900428A3
:100D1000B0900528C501B4010E94F41569017A015B
:100D20008AE0C81AD108E108F108C501B40120E43D
:100D300032E44FE050E00E94F415DE010E94951568
:100D400028EE33E040E050E00E94F415C21AD30AC6
:100D5000E40AF50AF694E794D794C794C092A608DB
:100D6000DF91CF91FF90EF90DF90CF90BF90AF9049
:100D70009F908F900895CCE2D1E020E83AE146E0E0
:100D800050E0C0CFC8EED3E020EA36E841E050E0C2
:100D9000B9CFCB01BA010C945C061092862A10924E
:100DA000872A1092CC291092CB298091C828909143
:100DB000C928892B41F562E070E086E10E947B0042
:100DC00062E070E087E10E947B008091E305809300
:100DD000E30581E090E08093C8289093C9281092A1
:100DE000B5281092B4281092C7281092B32881EC2D
:100DF0008093A30860EA76E881E090E00E945C06B8
:100E000081E08093A5080895E0EAF8E01382168255
:100E100081E08583148611861092C8281092C92813
:100E200008950C94040780918E2890918F289C013E
:100E30002150310922303105F0F4019751F488E155
:100E40009CE20E94CD0660E87AE186E090E00C9496
:100E50005C0661E088E19CE20E943B058CE39AE03D
:100E60008093072A9093082A8EEF98E08093092AAE
:100E700090930A2A08950C9404078F929F92AF9240
:100E8000BF92CF92DF92EF92FF920F931F93CF9377
:100E9000DF93EC01A0908E28B0908F28188280916B
:100EA0007B2B90917C2B029708F0B9C00091732B9B
:100EB0001091742B80918C2890918D28892B11F0A2
:100EC00010E000E084E00E940B03F82E86E00E9410
:100ED0000B03C82E88E00E940B03E82E87E00E94D7
:100EE0000B03D82E82E00E940B03A0916E289091F4
:100EF0006F284091702850917128609182287091DC
:100F00008328E0918428F091852821E0A216B1047D
:100F1000E9F4C090932803301105C4F0F0909228B2
:100F2000E0909428D090952880919628A0919828B8
:100F30009091992840919A2850919B2860919C28E3
:100F400070919D28E0919E28F0919F282091722B0E
:100F50001F922F93BF92AF9223EA38E23F932F93D1
:100F60002091A1283091A228220F331F220F331F76
:100F70002B533D483F932F9320EC32E73F932F9321
:100F80002091622830916328220F331F220F331FD4
:100F90002B533D483F932F932091A0281F922F93CE
:100FA00021E08090EE2A9090EF2AA090F02AB09055
:100FB000F12A38E0831630E2930637E0A30631E0E9
:100FC000B30609F020E01F922F93FF93EF937F93D6
:100FD0006F935F934F939F93AF939091ED2A1F92DE
:100FE0009F931F928F931F92DF921F92EF921F92F7
:100FF000CF921F92FF921F930F938DE293E79F93DF
:101000008F931F928AE38F93DF93CF930E94691689
:101010002DB73EB7245D3F4F2DBF3EBF07C04AE30B
:1010200050E067E173E7CE010E945A1690E080E03D
:10103000DF91CF911F910F91FF90EF90DF90CF90B4
:10104000BF90AF909F908F900895E0E0F6E082818E
:101050008F7C8283A0EAB0E08C918F788C93828120
:10106000806182830895FB0101900020E9F73197A8
:10107000AF01461B570BDC01ED91FC910280F3811F
:10108000E02D0994CF93DF93BC018DE79BE20E9492
:101090003308EC016CE673E78DE79BE20E943308AE
:1010A0008C0F9D1FDF91CF9108958F929F92AF92E9
:1010B000BF92CF92DF92EF92FF92CF93DF93CDB7A3
:1010C000DEB7A197CDBFDEBF8CE00E940B0381117C
:1010D00075C082E090E080938E2890938F288BE0FB
:1010E0000E940B03811106C081E090E080938E285E
:1010F00090938F28209100283091012880918E288C
:1011000090918F282817390709F442C06FE673E7DA
:101110008DE79BE20E943308C0908E28D0908F28E4
:101120000D2C000CEE08FF08F7FE4DC06DE28DE7B8
:101130009BE20E94600222273327A9012C193D0956
:101140004E095F0919A2CE0181967C019AE0892E91
:10115000912CA12CB12CCA01B901A50194010E94C6
:10116000F415605DF70162937F012115310541059A
:10117000510589F7E114F10429F0B7018DE79BE2ED
:101180000E9433086CE673E78DE79BE20E94330808
:1011900080918E2890918F28809300289093012829
:1011A000A196CDBFDEBFDF91CF91FF90EF90DF9092
:1011B000CF90BF90AF909F908F90089510928E28FF
:1011C00010928F2897CFA701960119A2CE01819680
:1011D0007C018AE0882E912CA12CB12CCA01B90186
:1011E000A50194010E94F415605DF70162937F01EF
:1011F000211531054105510589F7BCCF8DEC99E2E8
:101200000E943D07892B49F489E180935F286DECAA
:1012100079E288E19CE20C94330808950F931F93C0
:10122000CF93DF93D42F8B01C0E060E873E70E9477
:101230001115009749F0F801819391938F01CF5FC9
:1012400090E080E0DC13F1CF81E090E0CD1302C0AC
:1012500090E080E0DF91CF911F910F910895EF9280
:10126000FF920F931F93CF93DF9300D0CDB7DEB7DC
:10127000FC01D9011A82643229F4108281E08C9336
:1012800080E006C08C91633271F4882351F01C9287
:101290000F900F90DF91CF911F910F91FF90EF90E2
:1012A00008951082F5CF882359F379018F0169835E
:1012B00050E0BE016F5F7F4FCF010E941615892B52
:1012C000F9F6F7011082F8011082DACF4F925F929F
:1012D0006F927F92AF92BF92CF92DF92EF92FF9286
:1012E0000F931F93CF93DF93CDB7DEB76897CDBF32
:1012F000DEBF2BE03AE244E1682F88E89AE20E94E0
:101300002F090AE010E0882399F1CE0101966C01C3
:101310008CE0F60111928A95E9F700918E281091E0
:101320008F2895E0492E512C0130110519F082E0EB
:10133000482E512C44E150E062E372E788E89AE2DB
:101340000E944C16892B09F483C046E0BE01635FFE
:101350007F4F88E89AE20E940E098C01892BD9F010
:1013600001E010E000938C2810938D281092882AB9
:10137000C8016896CDBFDEBFDF91CF911F910F915D
:10138000FF90EF90DF90CF90BF90AF907F906F90E5
:101390005F904F900895CE010D965C01F12CE12CE9
:1013A000712C612CF501819191915F010E94CC1407
:1013B000F601819391936F01E1100FC0092E000C8B
:1013C000AA0BBB0BB7FD07C0FF24F39448165906C0
:1013D0006A067B063CF4F12C05C021E0029708F078
:1013E00020E0F222E394F6E0EF12DCCFFF2009F4D4
:1013F000B7CF89819A818093732B9093742B81E06E
:101400002B813C81232B09F480E08093752B81E0B4
:101410002D813E81232B09F480E08093762B81E09F
:101420002F813885232B09F480E08093772B81E08E
:1014300029853A85232B09F480E08093782B81E07D
:101440002B853C85232B09F480E08093792B8ACF70
:10145000012B79F480917B2B90917C2B892B31F49B
:1014600081E090E080937B2B90937C2B10E000E058
:101470007DCF01E010E07ACF9091872A8091862A73
:10148000981771F088E19CE20E94D10420918E2887
:1014900030918F282230310579F70E946609ECCF10
:1014A00008951F920F920FB60F9211242F933F931E
:1014B0004F935F936F937F938F939F93AF93BF935C
:1014C0004091E92A5091EA2A6091EB2A7091EC2A26
:1014D0008091E72A9091E82A2091E52A3091E62A26
:1014E000420F531F611D711D2091E32A3091E42AA0
:1014F000820F931F883E23E0920730F0885E93406E
:101500004F5F5F4F6F4F7F4F8093E72A9093E82A9A
:101510004093E92A5093EA2A6093EB2A7093EC2ACD
:101520008091DF2A9091E02AA091E12AB091E22AED
:101530000196A11DB11D8093DF2A9093E02AA0930C
:10154000E12AB093E22A81E08093B60ABF91AF917D
:101550009F918F917F916F915F914F913F912F91CB
:101560000F900FBE0F901F9018951F920F920FB6FD
:101570000F9211242F933F934F935F936F937F9319
:101580008F939F93AF93BF93EF93FF938DE79BE26E
:101590000E941B02FF91EF91BF91AF919F918F919C
:1015A0007F916F915F914F913F912F910F900FBE5F
:1015B0000F901F9018951F920F920FB60F92112443
:1015C0002F933F934F935F936F937F938F939F934B
:1015D000AF93BF93EF93FF93E091892BF0918A2B08
:1015E000818181FD2FC0608180918F2B8F5F8F73F0
:1015F0009091902B891741F0E0918F2BF0E0E35808
:10160000F44D618F80938F2B8091162C9091172C25
:10161000009739F0DC01ED91FC910190F081E02D13
:101620000995FF91EF91BF91AF919F918F917F911C
:101630006F915F914F913F912F910F900FBE0F903F
:101640001F9018958081EDCF1F920F920FB60F92C9
:1016500011242F933F934F935F936F937F938F93B7
:101660009F93AF93BF93CF93EF93FF93C091AB083A
:10167000C2FF0AC01092BB281092BA281092AC2860
:1016800084E00E94290614C0C6FF2FC08091B628AE
:10169000813051F48091BB28E091C328F091C42897
:1016A00090E009951092B628C0FF14C00E94390638
:1016B000FF91EF91CF91BF91AF919F918F917F91CA
:1016C0006F915F914F913F912F910F900FBE0F90AF
:1016D0001F90189580E48093AB0881E00E94290652
:1016E0008091AB0885FFE4CFE1CFC7FF5CC0C3FFAB
:1016F00008C01092BB281092BA281092AC2883E040
:10170000C0CF8091A90880668093A9088091AB081A
:1017100081FF2CC08091BA28882349F08091AB08C2
:1017200084FF05C082E08093AA0881E0AACF90914F
:10173000BA288091AC289817A8F4E091BA28809133
:10174000BC289091BD28E80FF92FF11D808180936E
:10175000AD088091BA288F5F8093BA2883E0809388
:10176000AA08A6CF82E08093AA088BCF9091BB28CD
:101770008091C028981790F48091AD08E091BB2823
:101780002091C1283091C228E20FF32FF11D8083F0
:101790008091BB288F5F8093BB28E0CF86E0809349
:1017A000AA0882E06ECF85E06CCF1F920F920FB631
:1017B0000F9211242F933F938F939F93EF93FF9357
:1017C0008091A508982F9C70E1F08091A50894E085
:1017D00082FF93E09093B3288093A50881E090E086
:1017E0008093C8289093C9281092C728FF91EF9141
:1017F0009F918F913F912F910F900FBE0F901F904F
:10180000189586FF4EC02091B0289091AF28809106
:10181000A50884FF15C08091AE28882379F083E065
:101820008093A40885E08093B3281092C72881E0B4
:1018300090E08093C8289093C928D8CF81E0F0CF5A
:101840008091B428821790F4E091B4288091B12857
:101850009091B228E80FF92FF11D80818093A8089C
:101860008091B4288F5F8093B428C0CF8091B52831
:10187000891760F484E090E08093C8289093C92889
:101880008091AD2881608093A708B0CF8091AE2869
:10189000882329F083E08093A40881E0C4CF81E00D
:1018A000FACF87FF40C09091B5288091AF28981754
:1018B000D8F48091A808E091B5282091C5283091EE
:1018C000C628E20FF32FF11D80838091B5288F5F2A
:1018D0008093B5289091AF288091B5288917D8F4C6
:1018E00082E08093A40882CF8091AE28882389F07B
:1018F00087E08093A40882E08093B3281092C728E1
:1019000081E090E08093C8289093C9281092AF2876
:101910006DCF85E0EECF8091AE28882311F087E06F
:10192000BACF85E0B8CF86E07ECFEDE7FBE212824A
:10193000138288EE93E0A0E0B0E084839583A683D1
:10194000B78329ED32E72083318320E638E024870E
:10195000358728E1268729E1278720E4208B128A12
:10196000138A148A158A26E2268B178A108E109203
:10197000162C1092172CE8E1FCE212821382848369
:101980009583A683B78383EF92E78083918308953D
:10199000CF93DF93CDB7DEB7CE56D109CDBFDEBF33
:1019A00088ED90E084BF9093610080E094E2A4EF22
:1019B000B0E08093022890930328A0930428B0936A
:1019C00005288091020686608093020680910006B9
:1019D0008160809300060E9425081092E20581E054
:1019E0008093E40583E08093010A8FEF90E0809379
:1019F000260A9093270A80E890E08093380A909313
:101A0000390A80933A0A90933B0A80933C0A909358
:101A10003D0A8BE08093000A8091E5058160809308
:101A2000E5058091E50582608093E505E0E8FAE050
:101A300037E02FEF90E885E0318324879587808316
:101A40007096E03C4AE0F407B9F780E094E08093B8
:101A5000D92A9093DA2A8091D92A9091DA2A2FEF05
:101A600030E0B9010E94E0156093D72A7093D82A1C
:101A70008091D92A9091DA2AE8EEF3E0BF010E9422
:101A8000E0156093E52A7093E62A8091D92A909117
:101A9000DA2ABF010E94E0158093E32A9093E42A9A
:101AA0002093BC0A3093BD0A8091B50A816080936F
:101AB000B50A84E08093B00A8091B00A8160809377
:101AC000B00A789423E030E040E051EE60E070E04E
:101AD0008DE79BE20E949D011092812B1092822B38
:101AE0001092832B1092842B0E94250880917428D9
:101AF0008B3220F470E060E00E947B0080918828A7
:101B00008B3220F470E060E00E947B0070E060E0C7
:101B100084E10E947B0070E060E080E10E947B0035
:101B200062E070E08CE00E947B0062E070E08BE09D
:101B30000E947B0061E070E085E00E947B0061E034
:101B400070E083E00E947B0061E070E084E00E942E
:101B50007B0061E070E086E00E947B0061E070E065
:101B600088E00E947B0061E070E087E00E947B00DB
:101B700061E070E082E00E947B0061E070E08DE057
:101B80000E947B000E9440030E9455086EEEE62EE4
:101B90006AE2F62E10E000E0C8010E947915D70134
:101BA0008D937D010F5F1F4F04381105A9F70E9427
:101BB000130780918E2890918F2802970297B8F191
:101BC0008DE79BE20E9478017C0110E01E151F0446
:101BD000ECF48DE79BE20E94560120918E28309113
:101BE0008F28225031092230310530F482E893E702
:101BF0000E9442081F5FEACF0E946609009719F40D
:101C000087E893E7F5CF0197A9F7F0CF80910628F1
:101C1000811102C18CE09AE20E943D07892B39F4C0
:101C20008CE09AE20E9442088AE08093062804E64B
:101C300018E2D12CC12CFF24F394AA24AA94BB242B
:101C4000B3940E9472044091EE2A5091EF2A609161
:101C5000F02A7091F12AE12C4830504267407140DF
:101C600059F4F60136E0EE0FFF1F3A95E1F7E25125
:101C7000F54DE80FF11DE480F80180890E941E01F6
:101C8000FC01EE0DF11DE7FCFA95D8011296ED93DB
:101C9000FC9313979F0150E040E02F5F31404109D2
:101CA0005109A8E0B1E00E949515603BBCE37B07B9
:101CB000BFEF8B079B070CF0B5C0D8011E96FC92B6
:101CC00060EB7CE38FEF9FEFD80116966D937D93C9
:101CD0008D939C93199753968C915397882309F46D
:101CE000CDC014968D919C911597E817F90709F4CA
:101CF000B0C051968D919C9152978431910508F016
:101D0000A3C0019651968D939C935297D801149637
:101D10002D913C9150E040E02F5F31404109510945
:101D2000A8E0B1E00E949515603BBCE37B07BFEFE4
:101D30008B079B070CF091C0F801F78660EB7CE302
:101D40008FEF9FEFD8011A966D937D938D939C939F
:101D50001D971D921C920C5E1F4FB1E0CB16D10453
:101D600009F05CC0809107281FEF180F1E3F08F094
:101D700091C061E070E080E10E947B0060E080E162
:101D80000E942D031093072884E10E941E0121E088
:101D9000883C91050CF020E02093692A0E945508A8
:101DA00020918E2830918F2840916228509163288D
:101DB0008091AA289091692A6091592870915A2897
:101DC000672B09F0ACC02130310509F0D5C5423090
:101DD000510509F0846060915E28611101C0816045
:101DE000911101C080618093722BE091572AF0918C
:101DF000582AEB30F10508F0ABC0EF5FF04F0C94C0
:101E00003516950FBD0FCA0FDD0F23103010371098
:101E10007D104811A80F4D11815007CFCC24C394D9
:101E2000D12C0FCF6135B3EC7B078105910524F4EC
:101E3000D8011E961C9248CFD8011E96FC9260E5F0
:101E400073EC80E090E040CF1496ED93FC931597EF
:101E50005DCFF801118A128A59CF6135F3EC7F0703
:101E60008105910524F4D8011F961C926BCFF801CF
:101E7000F78660E573EC80E090E064CFF801A4821F
:101E8000B5821A961D921D921D921C921D97539613
:101E9000FC9261CF811178CF70E060E080E10E9418
:101EA0007B0080E10E941E019C01285933402531AE
:101EB000310500F5C0926228D09263288091622893
:101EC00090916328029791F461E070E089E00E94AC
:101ED0007B0061E070E08AE00E947B0060E089E0C6
:101EE0000E942D0361E08AE00E942D038FEF809312
:101EF00007284ACF9C01205733402531310538F45B
:101F000082E090E08093622890936328D7CF843F4B
:101F10009140A0F61092622810926328CFCF213012
:101F2000310509F029C580E052CF10924F2A109256
:101F3000502A2330310561F070E060E090E080E0ED
:101F40000E94750381E090E08093572A9093582A6D
:101F5000E0917B2BF0917C2B3297E830F10508F073
:101F6000AEC1EB54F04F0C94351659112312501298
:101F70007A129512F5120F1335130E94D9038111AD
:101F8000E7CF81E090E080938C2890938D2882E0C9
:101F900090E0DACF882361F080914E2A811104C04D
:101FA0001092572A1092582A81E080934E2AD0CF5F
:101FB00010924E2A83E090E0C7CF80917B2B9091C6
:101FC0007C2B0197A1F188E0E3E7FBE2A6E4BAE20B
:101FD00001900D928A95E1F780918C2890918D283F
:101FE000892B09F0B5CF87E090E08093572A909332
:101FF000582A4091462A5091472A80914F2A909121
:10200000502A4817590749F02230310531F084E051
:1020100090E08093572A9093582A88E0E6E4FAE209
:10202000AFE4BAE201900D928A95E1F791CF433087
:10203000510531F082E090E080937B2B90937C2BD4
:102040008AE090E081CF60914F2A7091502A809170
:10205000462A9091472A0E94750385E090E074CF4C
:102060000E94D903811174CF86E090E06DCF8AE0A1
:1020700090E0809356289093572884E190E08093D5
:102080003228909333288093362890933728809372
:102090003A2890933B2880934E2890934F2889E1CB
:1020A00090E0809352289093532888E290E08093A8
:1020B0003E2890933F2882E390E0809342289093BB
:1020C0004328809346289093472880934A289093EA
:1020D0004B28E0E3F8E2A8E0B8E288E598E2228144
:1020E000338112962D933C931397349614968E1742
:1020F0009F07A9F787E090E027CF88E0E6E4FAE2BF
:10210000DE01A959BF4F01900D928A95E1F78091A8
:10211000462A9091472AF091492AA9014D7F452BE3
:1021200009F05AC0AA96EFACAA97AC960FADAC973F
:10213000AD961FADAD97AE96BFADAE97FF2E60E0EA
:1021400070E0E0E0F0E0A0E050E040E08130910598
:1021500009F47EC010923128029709F483C01092CE
:10216000352810924D2881E080935128E09239283B
:10217000F0923D280093412810934528B0934928B8
:102180004130510509F474C01092092842305105BC
:1021900009F478C010920D281092252881E08093D0
:1021A0002928A0931128F0931528E09319287093FB
:1021B0001D2860932128109255282130310549F4BB
:1021C0008091462A9091472A03971CF481E08093DE
:1021D000552888E090E0B8CE2130310589F583306C
:1021E0009105D0F08630910558F5AA96AFADAA9723
:1021F000AC96EFADAC97AD967FADAD97AE966FADAB
:10220000AE97AC0143505109B0E010E000E0F12C72
:10221000E12C90E080E09ACFAA96EFACAA97AC961A
:102220000FADAC97AD961FADAD97AE96BFADAE9767
:1022300060E070E0E0E0A0E050E040E0F12C86CF0C
:1022400060E070E0E0E0F0E0A0E050E040E0DCCFF3
:1022500081E0809331281092352880934D28109288
:10226000512884CF81E08093352810924D28F7CFF4
:1022700081E08093092810920D28809325281092E0
:1022800029288FCF81E080930D2810922528F7CF41
:102290000E94D90381115CCE7ACE80917B2B9091E4
:1022A0007C2B029708F054CE1092572A1092582A8D
:1022B0004FCE83E090E080937B2B90937C2BC0905B
:1022C0008E28D0908F28809160289091612883304B
:1022D000910529F08C159D0511F00E941307B1E0BE
:1022E000CB16D10409F017C38091692A882309F419
:1022F000BAC2809158288111BFC120916A2A3091B9
:102300006B2A40916C2A50916D2A60916E2A7091CF
:102310006F2AE091702A82E79AE21092722A1F9245
:10232000EF931F927F931F926F931F925F931F9261
:102330004F933F932F932AE833E73F932F931F92B6
:1023400024E12F939F938F930E94691661E088E1A7
:102350009CE20E942C0562E77AE288E19CE20E94FE
:10236000330888E19CE20E94240581E0809358288C
:10237000CDBFDEBF80915B288111CBC221E04AE353
:1023800050E061E088E19CE20E94FF059091872A7D
:102390008091862A981709F451C288E19CE20E9434
:1023A000D10420918E2830918F282130310571F78A
:1023B0002CE93AE24AE3682F8DE99AE20E942F095C
:1023C000E82E882319F38E010F5F1F4F84E4D80194
:1023D0001D928A95E9F741E1BE016B5B7F4F8DE964
:1023E0009AE20E940E09009709F01BC2FE01EB5B06
:1023F000FF4F5F01F12CD5018D909D905D01C401CF
:102400000E94EA14F80161937193819391938F0173
:10241000F0E1FF1508F464C1EF2DF0E0EE5EFD4E33
:102420000C943516401370137013701370137013DF
:102430007013A414A4147013701348137B137B132C
:102440007B1364136B131092672A1092682A809191
:102450006228909163280297D9F48CE492E78093E4
:10246000652A9093662A84E08093642A2091642AE6
:1024700081E090E002C0880F991F2A95E2F78093CF
:10248000622A9093632A0E94400384E090E013CF75
:1024900086E492E78093652A9093662A86E0E4CFEB
:1024A00010E0EE24E394F12C8091642A1817E0F4F4
:1024B0002091672A3091682AC701012E02C0880F37
:1024C000991F0A94E2F78223932361E0892B09F490
:1024D00060E0E091652AF091662AE10FF11D8081AC
:1024E0000E942D031F5FE0CF85E08093612A85E085
:1024F00090E0E1CE8091612A811113C01092592A97
:1025000010925A2A10925B2A10925C2A10925D2A2D
:1025100010925E2A10925F2A1092602A86E090E064
:10252000CACE81508093612ACACE1091612A8090D0
:10253000592A90905A2AA0905B2AB0905C2AC090A9
:102540005D2AD0905E2AE0905F2AF090602A1A30CF
:1025500050F58FE00E941E01092E000CAA0BBB0B48
:10256000880E991EAA1EBB1E8092592A90925A2A42
:10257000A0925B2AB0925C2A8EE00E941E01092E76
:10258000000CAA0BBB0BC80ED91EEA1EFB1EC09284
:102590005D2AD0925E2AE0925F2AF092602A1F5F45
:1025A0001093612A8CCE0E947204412E512C712C02
:1025B000612C082F10E00251154DC501B401A30193
:1025C00092010E94F4152095D80114962C930C5B6F
:1025D0001F4FC701B601A30192010E94F415209577
:1025E000F801208387E090E066CE84E090E080935D
:1025F0007B2B90937C2B8091672A9091682A01967F
:102600008093672A9093682A2091622A3091632AE6
:102610008217930709F053CE88E090E04CCE88E013
:1026200090E2A7E0B1E08093EE2A9093EF2AA09386
:10263000F02AB093F12A9EEEE92E9AE2F92E10E0EC
:1026400000E0D701DD907D01C8010E947915D81600
:1026500021F06D2DC8010E9481150F5F1F4F0438B6
:10266000110579F789E090E026CE0E944003109290
:102670007B2B10927C2B23CE8150809358287ACECE
:1026800045E050E060E070E080E090E0DC0164C193
:1026900085EC682E82E7782E512CB301C4010E948C
:1026A0004316892BB1F083E0539434E0531629F09C
:1026B00024E0620E711C833081F390E0B0E0A0E072
:1026C0008DA79EA7AFA7B8AB42E050E060E070E0F6
:1026D000DBCF852DE9CF4FE150E060E070E0D4CF53
:1026E00041E050E060E070E0CFCF4415550566054D
:1026F00077050CF43DC189819A818093902890934D
:10270000912881E04D815E816F817885452B462B34
:10271000472B09F480E08093922881E049855A850F
:102720006B857C85452B462B472B09F480E08093F5
:10273000932881E04D855E856F857889452B462BF2
:10274000472B09F480E08093942881E049895A89D5
:102750006B897C89452B462B472B09F480E08093BD
:10276000952881E04D895E896F89788D452B462BB0
:10277000472B09F480E08093962881E0498D5A8D9B
:102780006B8D7C8D452B462B472B09F480E0809385
:1027900097288D8D9E8DAF8DB8A1809398289093AA
:1027A0009928A0939A28B0939B2889A19AA1ABA1BC
:1027B000BCA180939C2890939D28A0939E28B093C1
:1027C0009F2881E04DA15EA16FA178A5452B462BE6
:1027D000472B09F480E08093A0288DA59EA58093C7
:1027E000A1289093A2286F966EAD7FAD6F9745E0BC
:1027F00050E083EA98E20E945A168DAD9EAD809318
:10280000A8289093A92822968FAD22978093AA2872
:102810002E2D90E080E0F39441E1F41611F02111A7
:10282000EACD8093592890935A281092882A892BB0
:1028300009F0ACCD89E180935E28A8CD85E0809336
:102840005B2889E180935F2880915E28882319F0B6
:10285000815080935E2880915E2890915D28891731
:1028600010F480935D28C0926028D09261288FB7C1
:10287000F8942091DF2A3091E02A4091E12A50918A
:10288000E22A1091BA0A9091B60A90FF06C02F5F13
:102890003F4F4F4F5F4F1091BA0A8FBFA091D92A77
:1028A000B091DA2AE091D72AF091D82A0E949515A2
:1028B0001E9F90011F9F300D1124DC01CB01820F60
:1028C000931FA11DB11D0091DB2A1091DC2A2091DC
:1028D000DD2A3091DE2AAC01BD01401B510B620B99
:1028E000730B8A019B01003117422105310508F461
:1028F000BECF8093DB2A9093DC2AA093DD2AB0938D
:10290000DE2A80E090E0892B09F453C90E94000080
:1029100050C9815094CF52E0C516D10409F0A3CF1D
:1029200089E180935E2880915F28882319F0815087
:1029300080935F2880915F2890915C28891708F028
:1029400092CF80935C288FCF40E553EC60E070E03D
:1029500080EB9CE3AFEFBFEFF801349740805180EC
:1029600062807380481659066A067B060CF0BDCE5D
:1029700020E081E090E04FCF80E02230310509F087
:102980002FCA88E04230510509F080E060915F284D
:10299000611126CA826024CAFC0188279927E8941D
:1029A00021912032E9F3293010F02E30C8F32B3278
:1029B00041F02D3239F4689404C00E947115820FE1
:1029C000911D219120532A30C0F31EF490958195DA
:1029D0009F4F08951F93FC0199278827BC01E89415
:1029E00011911032E9F3193010F01E30C8F31B3288
:1029F00051F01D3249F4689406C00E945C15610FC5
:102A0000711D811D911D119110531A30B0F33EF4C8
:102A100090958095709561957F4F8F4F9F4F1F9137
:102A2000089544E25CE20E9435150895DC01FB0143
:102A30004150504070F00D900020D1F7119704C024
:102A400001900D92002061F041505040C8F71C9257
:102A5000BF0101900020E9F7E61BF70BAE0FBF1F87
:102A60000894A80BB90BCD010895FA01A191B0818A
:102A7000009719F41097E1F0CD01DC01CD010D9024
:102A8000002011F4C00113C0FB012191222319F091
:102A90002015D9F7F3CFFB012191201519F41E92CF
:102AA000119606C02223C1F70D900020A1F7D00196
:102AB000FA01A193B0830895592F482F372F262F5D
:102AC000660F771F881F991F660F771F881F991F32
:102AD000620F731F841F951F660F771F881F991F32
:102AE00008957AE0979F902D879F802D910D112456
:102AF000089503D0808199270895FC01E050FC4E91
:102B00000895262FAF93BF93E0E0F0E1328131FDCD
:102B1000FDCFDC01A050BC4E2C932DE924BF23E057
:102B200020830196BF91AF9108950E94D115A59F72
:102B3000900DB49F900DA49F800D911D11240895B8
:102B40002F923F924F925F926F927F928F929F92BD
:102B5000AF92BF92CF92DF92EF92FF920F931F93AB
:102B6000CF93DF93CDB7DEB7CA1BDB0BCDBFDEBF84
:102B700009942A88398848885F846E847D848C848F
:102B80009B84AA84B984C884DF80EE80FD800C8198
:102B90001B81AA81B981CE0FD11DCDBFDEBFED0152
:102BA0000895A29FB001B39FC001A39F700D811D26
:102BB0001124911DB29F700D811D1124911D089546
:102BC000AA1BBB1B51E107C0AA1FBB1FA617B70753
:102BD00010F0A61BB70B881F991F5A95A9F780956F
:102BE0009095BC01CD010895A1E21A2EAA1BBB1B32
:102BF000FD010DC0AA1FBB1FEE1FFF1FA217B307C9
:102C0000E407F50720F0A21BB30BE40BF50B661FDE
:102C1000771F881F991F1A9469F7609570958095A2
:102C200090959B01AC01BD01CF010895052E97FB46
:102C30001EF400940E942D1657FD07D00E94F41533
:102C400007FC03D04EF40C942D165095409530950A
:102C500021953F4F4F4F5F4F089590958095709508
:102C600061957F4F8F4F9F4F0895EE0FFF1F059087
:102C7000F491E02D0994B7FF0C9495150E949515D9
:102C8000821B930B0895FB01DC018D91019080194B
:102C90000110D9F3990B0895FB01DC01415050401C
:102CA00030F08D910190801919F40020B9F7881B3C
:102CB000990B0895FB01DC014150504048F0019010
:102CC0000D920020C9F701C01D9241505040E0F71D
:102CD0000895AEE0B0E0EFE6F6E10C94AE150D8994
:102CE0001E898F89988D26E02C8309831A8397FF8C
:102CF00002C080E090E801978D839E83AE01455E1F
:102D00005F4F698D7A8DCE0101960E9499164D8193
:102D10005E8157FD0AC02F813885421753070CF496
:102D20009A01020F131FF80110822E96E4E00C9412
:102D3000C715ABE0B0E0EFE9F6E10C94A0157C011B
:102D40003B018A01FC0116821782838181FFC8C181
:102D5000CE0101965C01F7019381F30193FD85910A
:102D600093FF81913F01882309F453C1853239F4DF
:102D700093FD859193FF81913F01853229F4B7013D
:102D800090E00E948918E7CF912C212C312CFFE193
:102D9000F31538F08B3211F190F4803209F183325F
:102DA00029F137FC3CC020ED280F2A3050F536FEC3
:102DB00020C08AE0989E200D1124922E06C08D32EC
:102DC00091F0803371F7689430F8F30193FD8591A9
:102DD00093FF81913F018111DACF21C0689431F8CE
:102DE000689432F8F2CF689433F8EFCF689434F8EF
:102DF000ECCFEAE02E9E200D1124222E689435F8A7
:102E0000E4CF8E3229F436FC04C1689436F8DDCF65
:102E10008C3619F4689437F8D8CF8836B1F2982FE9
:102E20009F7D95549330E0F08336A1F18337C1F153
:102E3000833509F063C02801F2E04F0E511CF80100
:102E4000C080D180692D70E036FC02C06FEF7FEF4B
:102E5000C6010E9473184C01689437F882010AC0B9
:102E60000C5F1F4FFFE3F98388248394912C650145
:102E7000E89437F833FE2DC0522C8114910471F57B
:102E8000552009F468CFB70180E290E00E948918CC
:102E90005A94F6CFF801808189830E5F1F4FE4CFEB
:102EA0002801F2E04F0E511CF801C080D180692D3D
:102EB00070E036FC02C06FEF7FEFC6010E947E1803
:102EC0004C018201D5CFB70180E290E00E948918C1
:102ED0002A942814190409F0B0F7CECFF60137FC74
:102EE000859137FE81916F01B70190E00E948918AA
:102EF00051105A94F1E08F1A9108BFCF843619F01F
:102F0000893609F077C0F80137FE6BC060817181A6
:102F1000828193810C5F1F4FF32DFF763F2E97FF29
:102F200009C090958095709561957F4F8F4F9F4F09
:102F3000689437F82AE030E0A5010E94B918C82E3D
:102F4000CA188C2C432C36FE0CC0E89440F8C914E7
:102F500040F434FE05C032FC03C0F32DFE7E4F2E3C
:102F6000892C44FE95C0FE01EC0DF11D808180335B
:102F700009F087C0242D297E422E842D8870582E7A
:102F800043FC95C040FE8FC09C2C821418F42C0C7E
:102F9000922C981844FE91C0B70180E390E00E9403
:102FA000891842FE09C088E790E041FE02C088E52A
:102FB00090E0B7010E948918C91408F48AC0CA9425
:102FC000D12C9FEFC91AD90ACA0CDB1CF6018291D9
:102FD0006F01B70190E00E948918AC14BD04B1F7ED
:102FE0004FCF60817181072E000C880B990B0E5F0B
:102FF0001F4F92CFD32CE894D4F82AE030E08537E5
:1030000039F1232D297FD22E8F3601F148F48835EE
:10301000A9F0F701868197812B96E2E10C94B9150E
:10302000803749F08837A9F7D4FE02C06894D2F8F7
:1030300020E130E00DC06894D4F8F6CF34FE03C030
:10304000822F8660D82E20E132E002C028E030E0F6
:10305000F801D7FE0FC060817181828193810C5F7E
:103060001F4FA5010E94B918C82ECA183D2CE8941C
:1030700037F867CF6081718190E080E00E5F1F4F6D
:10308000F0CF42FC02C0839478CF8394839475CFB1
:10309000842D867809F471CFF6CFB70180E290E0F5
:1030A0000E94891883948214C0F3512C73CF522C40
:1030B0005818821408F46ECFF8CF842D867809F45E
:1030C0007BCF8BE241FE80E247FC8DE2B70190E0CE
:1030D00071CFB70180E390E00E9489189A946CCF79
:1030E0008FEF9FEF99CFFC01059061507040011068
:1030F000D8F7809590958E0F9F1F0895FC01615021
:10310000704001900110D8F7809590958E0F9F1F09
:1031100008950F931F93CF93DF93182F092FEB017F
:103120008B8181FD09C01FEF0FEF812F902FDF9161
:10313000CF911F910F91089582FF14C02E813F817E
:103140008C819D81281739073CF4E881F981CF01F2
:1031500001968883998310838E819F8101968E8347
:103160009F83E3CFE885F985812F0995892BA1F30A
:10317000DACFFA01AA27283051F1203181F1E89401
:103180006F936E7F6E5F7F4F8F4F9F4FAF4FB1E05A
:103190003ED0B4E03CD0670F781F891F9A1FA11D55
:1031A000680F791F8A1F911DA11D6A0F711D811D56
:1031B000911DA11D20D009F468943F912AE0269F1B
:1031C00011243019305D3193DEF6CF010895462F7A
:1031D0004770405D4193B3E00FD0C9F7F6CF462F5B
:1031E0004F70405D4A3318F0495D31FD40524193C4
:1031F00002D0A9F7EACFB4E0A69597958795779581
:103200006795BA95C9F700976105710508959B0107
:10321000AC010A2E06945795479537952795BA9590
:10322000C9F7620F731F841F951FA01D0895F8949E
:02323000FFCFCE
:103232005452494747455243414C494252415449ED
:103242004F4E0000050304060807040608070302A0
:1032520001000C0D04050000000300010200000142
:10326200010000000000000000000000000000005B
:103272000504000506020401030001000102030225
:103282000100020304050203050402020005020113
:1032920005000401010404040303030305050303F9
:1032A2000000010120100120400410020801020167
:1032B2000204080402010408102004082010342E1D
:1032C200304500312E3000322E3000332E30004E89
:1032D2002F4100000000006002DE024701B10278C7
:1032E2000156016A01D5029D018401D3020000004A
:1032F200000905E4048005C1044001D104C204CDE3
:10330200063B051107C9062C05E0052405FF053318
:103312000570036B032343414C4942524154494FC8
:103322004E2052554E4E494E4724002425643B25DB
:10333200643B25643B25643B25643B25643B256453
:103342003B252B30366C643B252B30366C643B2599
:10335200643B25643B25733B25733B25733B2573F7
:103362003B25643B2530336423000D0A004F706512
:10337200726174696F6E206D6F64653A20003B0064
:103382004641494C004F4B002425643B25643B25B4
:0C339200643B25643B25643B256423005C
:10339E0003000024F4000A030500000003000000EF
:1033AE0004000000060000000800000007000000F6
:1033BE0002000000090000000A0100000D000000DC
:1033CE0005000000030000000400000006000000DD
:1033DE0008000000070000000200000009000000C5
:1033EE000A0100000D00000002010005191919194B
:1033FE0003000300000000000000000000000000B9
:10340E00000000000F00000000000000000000009F
:10341E0000000000000000000E000000010003008C
:10342E00000000000000000000000000000000008E
:0C343E000003004E2F41000003000000BE
:00000001FF
